:020000040800F2
:1000000000000824D51B0008B51A0008B71A00081C
:10001000B91A0008BB1A0008BD1A00080000000049
:10002000000000000000000000000000C1D3000834
:10003000BF1A00080000000051D40008C1CB00081E
:10004000251C0008251C0008251C0008251C00088C
:10005000251C0008251C0008251C0008251C00087C
:10006000251C0008251C0008251C0008251C00086C
:10007000251C0008251C0008251C0008251C00085C
:10008000251C0008251C0008251C0008251C00084C
:10009000251C0008251C0008251C0008251C00083C
:1000A000251C0008251C0008251C0008251C00082C
:1000B000251C0008251C0008251C0008251C00081C
:1000C000251C0008251C0008251C0008251C00080C
:1000D000251C0008C11A0008251C0008251C000862
:1000E000251C0008251C000800000000251C000835
:1000F000251C0008251C0008251C0008251C0008DC
:10010000251C0008251C0008251C0008251C0008CB
:10011000251C0008251C0008CD1A0008251C000815
:10012000251C0008251C0008251C0008251C0008AB
:10013000251C0008251C0008251C0008251C00089B
:10014000251C0008251C000800000000000000001D
:10015000251C0008251C0008251C0008251C00087B
:10016000251C0008251C0008251C0008251C00086B
:10017000251C0008251C0008251C000800000000A4
:10018000251C0008251C0008251C0008251C00084B
:10019000251C0008251C0008251C0008251C00083B
:1001A000D91A0008251C0008E51A0008251C0008BB
:1001B000251C0008251C0008251C0008251C00081B
:1001C000251C0008251C0008251C0008251C00080B
:1001D000251C0008251C0008251C0008251C0008FB
:1001E000251C0008251C0008251C0008251C0008EB
:1001F000251C0008251C0008251C0008251C0008DB
:10020000251C0008251C0008251C0008251C0008CA
:10021000251C0008251C0008251C0008251C0008BA
:10022000251C0008F11A0008FD1A0008191B000817
:10023000251C0008251C0008251C0008251C00089A
:10024000251C0008251C0008251C0008251C00088A
:10025000251C0008251C0008251C0008251C00087A
:10026000251C0008251C0008251C0008251C00086A
:10027000251C0008251C0008251C0008251C00085A
:10028000251C0008251C0008251C00080000000093
:08029000251C0008251C0008D4
:1002A00010B5054C237833B9044B13B10448AFF3B0
:1002B00000800123237010BD40990024000000003D
:1002C0003047020808B5034B1BB103490348AFF39D
:1002D000008008BD00000000449900243047020857
:1002E00001F0FF01102A2BDB10F0070F08D010F8E7
:1002F000013B013A8B422DD010F0070F42B3F6D1EB
:10030000F0B441EA012141EA014122F007047FF003
:1003100000070023F0E80256083C85EA010586EA5A
:10032000010685FA47F5A3FA87F586FA47F6A5FA96
:1003300087F68EB9EED1F0BC01F0FF0102F00702A2
:1003400032B110F8013B013A83EA010313B1F8D14D
:100350000020704701387047002D06BF354603382E
:10036000073815F0010F07D1013015F4807F02BF67
:10037000013015F4C03F0130F0BC0138704700BFB8
:1003800081F0004102E000BF83F0004330B54FEA46
:1003900041044FEA430594EA050F08BF90EA020FB3
:1003A0001FBF54EA000C55EA020C7FEA645C7FEA46
:1003B000655C00F0E2804FEA5454D4EB5555B8BF69
:1003C0006D420CDD2C4480EA020281EA030382EADA
:1003D000000083EA010180EA020281EA0303362D6C
:1003E00088BF30BD11F0004F4FEA01314FF4801C3F
:1003F0004CEA113102D0404261EB410113F0004F51
:100400004FEA03334CEA133302D0524263EB430307
:1004100094EA050F00F0A780A4F10104D5F1200EA5
:100420000DDB02FA0EFC22FA05F2801841F1000100
:1004300003FA0EF2801843FA05F359410EE0A5F1D4
:1004400020050EF1200E012A03FA0EFC28BF4CF005
:10045000020C43FA05F3C01851EBE37101F00045BB
:1004600007D54FF0000EDCF1000C7EEB00006EEBC8
:100470000101B1F5801F1BD3B1F5001F0CD3490852
:100480005FEA30004FEA3C0C04F101044FEA4452A9
:1004900012F5800F80F09A80BCF1004F08BF5FEA30
:1004A000500C50F1000041EB045141EA050130BD10
:1004B0005FEA4C0C404141EB0101013C28BFB1F522
:1004C000801FE9D291F0000F04BF01460020B1FA6D
:1004D00081F308BF2033A3F10B03B3F120020CDA40
:1004E0000C3208DD02F1140CC2F10C0201FA0CF01E
:1004F00021FA02F10CE002F11402D8BFC2F1200C83
:1005000001FA02F120FA0CFCDCBF41EA0C01904038
:10051000E41AA2BF01EB0451294330BD6FEA040481
:100520001F3C1CDA0C340EDC04F11404C4F120026C
:1005300020FA04F001FA02F340EA030021FA04F37E
:1005400045EA030130BDC4F10C04C4F1200220FAD5
:1005500002F001FA04F340EA0300294630BD21FA13
:1005600004F0294630BD94F0000F83F4801306BFD9
:1005700081F480110134013D4EE77FEA645C18BFCD
:100580007FEA655C29D094EA050F08BF90EA020F64
:1005900005D054EA000C04BF1946104630BD91EA5C
:1005A000030F1EBF0021002030BD5FEA545C05D15F
:1005B0004000494128BF41F0004130BD14F580049E
:1005C0003CBF01F5801130BD01F0004545F0FE4112
:1005D00041F470014FF0000030BD7FEA645C1ABF47
:1005E000194610467FEA655C1CBF0B46024650EA7E
:1005F000013406BF52EA033591EA030F41F40021AA
:1006000030BD00BF90F0000F04BF0021704730B52F
:100610004FF4806404F132044FF000054FF0000104
:1006200050E700BF90F0000F04BF0021704730B5C5
:100630004FF4806404F1320410F0004548BF40429A
:100640004FF000013EE700BF42004FEAE2014FEAEF
:1006500031014FEA02701FBF12F07F4393F07F4FCA
:1006600081F06051704732F07F4208BF704793F0CD
:100670007F4F04BF41F40021704730B54FF46074E0
:1006800001F0004521F000411CE700BF50EA0102E3
:1006900008BF704730B54FF000050AE050EA01028C
:1006A00008BF704730B511F0004502D5404261EBFC
:1006B00041014FF4806404F132045FEA915C3FF43D
:1006C000D8AE4FF003025FEADC0C18BF03325FEADA
:1006D000DC0C18BF033202EBDC02C2F1200300FA8B
:1006E00003FC20FA02F001FA03FE40EA0E0021FAB0
:1006F00002F11444BDE600BF53B94AB9002908BF4E
:1007000000281CBF4FF0FF314FF0FF3000F088B9D8
:10071000ADF1080C6DE904CE00F006F8DDF804E058
:10072000DDE9022304B070472DE9F047089D8E46AD
:1007300004468846002B4AD18A42174662D9B2FA4B
:1007400082F64EB1C6F1200301FA06F820FA03F34F
:10075000B74043EA0808B4404FEA174E1FFA87FC37
:10076000B8FBFEF1230C0EFB118843EA084301FBA2
:100770000CF29A4209D9FB1801F1FF3080F0EA80AF
:100780009A4240F2E78002393B449A1AA3B2B2FB84
:10079000FEF00EFB102243EA024300FB0CFC9C45DA
:1007A00009D9FB1800F1FF3280F0D6809C4540F259
:1007B000D3803B44023840EA0140A3EB0C03002104
:1007C0001DB1F3400022C5E90032BDE8F0878B423D
:1007D00005D90DB1C5E9000100210846F5E7B3FAD6
:1007E00083F1002946D1734502D3824200F205818C
:1007F000841A6EEB030201209046002DE5D0C5E976
:100800000048E2E7002A00F09080B2FA82F6002E5B
:1008100040F0A4808A1A030C4FEA174E80B2BCB293
:100820000121B2FBFEFC0EFB1C2243EA024304FB47
:100830000CF29A4207D9FB180CF1FF3802D29A4207
:1008400000F2E080C4469B1AB3FBFEF20EFB1233AB
:1008500040EA034302FB04F49C4207D9FB1802F16F
:10086000FF3002D29C4200F2CA8002461B1B42EAC1
:100870000C40A5E7C1F120068B4022FA06F71F4382
:100880000EFA01F420FA06F32EFA06FE4FEA174993
:10089000234300FA01F81FFA87FCBEFBF9F01C0C99
:1008A00009FB10EE44EA0E4400FB0CFEA64502FADA
:1008B00001F209D93C1900F1FF3A80F09C80A6456D
:1008C00040F2998002383C44A4EB0E041FFA83FEE8
:1008D000B4FBF9F309FB13444EEA044403FB0CFC9C
:1008E000A44508D93C1903F1FF3E80F08280A4455D
:1008F0007FD9023B3C4443EA0040A4EB0C04A0FB3C
:1009000002EC64457346E14662D35FD05DB1B8EB5B
:10091000030264EB090404FA06F622FA01F31E430B
:10092000CC40C5E9006400214FE7B1FBF2FC010CAB
:1009300041EA0E4180B240EA01423B4638463C461D
:10094000B846BE462026B1FBF7F1A2EB080241EA09
:100950000C4166E7014618E710462CE7C6F1200275
:100960002EFA02F3B740B14020FA02F24FEA174ED6
:100970000A43B3FBFEF8BCB20EFB1833110C41EA7C
:10098000034108FB04F9B04089454FEA104380B2A7
:100990003ED9791808F1FF3C01D289451FD8A1EB57
:1009A0000901B1FBFEF909FB04F80EFB191192B223
:1009B00042EA0142424529D2BA1809F1FF31C4D2B4
:1009C0004245C2D2A9F102013A44BEE7F0459DD2A8
:1009D000BEEB02036CEB070C0138E14696E7A7EB90
:1009E00009094944A8F1020CB1FBFEF909FB04F81E
:1009F000DBE773467FE7504666E70846FDE63B4483
:100A0000023A33E7ACF1020C3B441CE749469CE751
:100A1000A1EB0901C446B1FBFEF909FB04F8C4E7E8
:100A2000704700BF014900200DF08CBE052500086D
:100A30002DE9F843124D0027DFF84C900C4628684A
:100A400009F801700CF0FAFA88B10E4E01344946EB
:100A5000D6F80080224608F1040023F0DBF83B467C
:100A60003A4631462868C8F800400CF084FA4FF442
:100A7000807205490548BDE8F8430BF0E9BF00BFA7
:100A80008C9900242C9D0024309D0024CC990024B6
:100A9000F0B59DB04C22002109A823F0A1F8202236
:100AA000002101A823F09CF8042008F045FE002353
:100AB0000093264BDA6A22F00102DA62DB6A03F065
:100AC00001030093224B9A6942F440429A619A6969
:100AD00002F440420092009A9A699104FCD54FF4C6
:100AE00080330327402505220224082609A81894EC
:100AF000CDE909730123CDE90C35A023CDE91423F9
:100B00000023CDE91244CDE91644CDE919631B93C6
:100B100009F00CF908B172B6FEE73F232146CDE992
:100B200001374FF48063CDE9030601A8CDE90555EF
:100B3000CDE9073509F092FC014608B172B6FEE72F
:100B40004FF4802209F09AFB1DB0F0BD000400585C
:100B5000004802582DE9F047BAB0102200210124C4
:100B60002DA8042523F03CF805F04AFE4FF0104173
:100B7000BE4B2DA8ADF8B4403094CDE92E1305F04E
:100B80005DFE1A232DA88DF8B5408DF8BC3005F018
:100B900055FE02232DA88DF8C2408DF8B5304FF0D8
:100BA00050432E9318238DF8BC3005F047FE0323E5
:100BB0002DA88DF8B5304FF010532E9312238DF8D9
:100BC000BC3000238DF8C03005F038FE4FF0805364
:100BD0002DA88DF8B5502E9311238DF8BC3005F05B
:100BE0002DFE05232DA88DF8C0408DF8B530A04B03
:100BF0002E930E238DF8BC3005F020FE284605F01C
:100C00000DFE9C4B5A6912F4003211D1BFF34F8F85
:100C1000BFF36F8FC3F85022BFF34F8FBFF36F8FB7
:100C20005A6942F400325A61BFF34F8FBFF36F8F9E
:100C3000904A536913F4803323D1C2F88430BFF350
:100C40004F8FD2F8803043F6E074C3F3C900C3F38A
:100C50004E335B0103EA0406014646EA8175013919
:100C6000C2F86052F9D2203B13F1200FF2D1BFF34A
:100C70004F8F536943F480335361BFF34F8FBFF3FA
:100C80006F8F4FF6FF737C4D2C6814F4004400F016
:100C90002583013BF8D272B6FEE772B6FEE77748CD
:100CA000774A83610462C0E90026C0E90253C0E9C3
:100CB000045308F05DFE08B172B6FEE740F203137C
:100CC0002DA98DF8B640ADF8B43005F079F808B12B
:100CD00072B6FEE705F020F8034608B172B6FEE7EB
:100CE00068484FF44032DFF8A8C1C0E90253C0E9B8
:100CF00000C205F0D5FF044608B172B6FEE7024611
:100D00003946614806F0AEFE142005F0FDFC394678
:100D10002A465D4806F0A6FE0A2005F0F5FC2422CE
:100D2000214617A822F05CFF1822214611A822F0C4
:100D300057FF342221462DA822F052FF21462C22B3
:100D400020A822F04DFF514F4FF0A0430EA9384686
:100D50001095C7E900347723C7E90285CDE90E363F
:100D600006F0EAF808B172B6FEE7CDE91750CDE912
:100D70001900CDE91B00CDE91D001F9017A93846C9
:100D800006F046FB08B172B6FEE721231C250F26AC
:100D900011A9CDE911531923CDE915003846CDE944
:100DA000136306F0F8FA08B172B6FEE7042137487B
:100DB00006F0E0FA08B172B6FEE742F2107133486D
:100DC00006F0AFFC014608B172B6FEE72F4806F008
:100DD00051F808B172B6FEE74FF400734FF4807912
:100DE0004FF4806A4FF480524FF480414FF400304A
:100DF0004FF400244FF00208CDE92D934FF4006327
:100E0000CDF8E480CDE92FA34FF40053CDE9312391
:100E10004FF48033CDE933134FF480232DA9CDE96E
:100E200035034FF080731948CDE9374306F06EFA69
:100E300008B172B6FEE705234FF4C877012620906B
:100E400027902A96CDE921371023CDE9233080233E
:100E5000CDE925000DEB0301CDE928300B4806F064
:100E6000E3F90146B0B172B6FEE700BF1B00000314
:100E70000000041000ED00E000440258609A0024D5
:100E800000500052A09C002400180258849C0024AA
:100E900000100052774806F0B6F9044608B172B661
:100EA000FEE73422014620A8734D22F099FEDFF8B8
:100EB0001CC24FF000434FF4C97EC5F8208028467D
:100EC000AC8685F83640C5E900C34FF08043C5E9DC
:100ED00002344FF4F173C5E90648C5E909E340F26D
:100EE000931840F2E313C5E90444C5E90B8308F005
:100EF00019F9024608B172B6FEE7FF2122904FF4BD
:100F0000F073ADF8B0208DF8B2202B93CDE9251009
:100F1000CDE9200707214FF4C060CDE927014FF04C
:100F200050412846CDE9291720A9CDE9233608F0FC
:100F3000AEF9044608B172B6FEE72A684D489369D7
:100F400023F00103936106F0C9FA4C494C4B4D481C
:100F5000CB604D4B0C804B604C4B8B6004F0D2FC53
:100F600032462146474804F03DF928231522214600
:100F70004048009406F0E5FA2DA93E483794CDE9A3
:100F80002D44CDE92F44CDE93144CDE93344CDE9B9
:100F9000354406F0BBF922464FF44871284608F064
:100FA000A3F92A683A489369848043F00103936166
:100FB000384B06620360C0E9054405F06BFC08B1DC
:100FC00072B6FEE73448354B036007F0A5FA08B166
:100FD00072B6FEE7324C4FF4E13332490C22204620
:100FE000C4E900130023C4E902332361C4E90523E3
:100FF000C4E90733C4E909330BF0F0FB014608B13B
:1010000072B6FEE720460BF0E3FC014608B172B66B
:10101000FEE720460BF0FCFC08B172B6FEE7204666
:101020000BF0BBFC054608B172B6FEE700F0FCFD14
:1010300000F0F9FD0BF0D2FD02211B4A08460BF02F
:101040005FFF1A4B1A4A294618601A480BF0F2FD46
:10105000194B1A4A2946186019480BF0EBFD194B39
:101060004FF480721849186020460BF0F1FC0BF029
:10107000C7FDFEE7849C0024AC9A00245C99002400
:10108000E95C00086C990024FD2100083522000865
:10109000089D0024004C02582C9C00240030005273
:1010A000CC990024001001404C6602088C99002461
:1010B00088660208371C00089499002464660208B8
:1010C000913D000890990024309D002400100050AC
:1010D000142200212DA8012522F082FDD4F8E03051
:1010E000002241F2083143F480738D484FF000092B
:1010F0000326C4F8E0304FF48078D4F8E0304FF0A5
:10110000020A082703F480730493049BD4F8E030A8
:1011100043F00203C4F8E030D4F8E03003F00203F7
:101120000593059BD4F8E03043F04003C4F8E03069
:10113000D4F8E03003F040030693069BD4F8E03087
:1011400043F01003C4F8E030D4F8E03003F01003AB
:101150000793079BD4F8E03043F08003C4F8E030F5
:10116000D4F8E03003F080030893089BD4F8E03013
:1011700043F00403C4F8E030D4F8E03003F0040393
:101180000993099BD4F8E03043F40073C4F8E030CD
:10119000D4F8E03003F400730A930A9BD4F8E030EB
:1011A00043F00803C4F8E030D4F8E03003F008035B
:1011B0000B930B9BD4F8E03043F00103C4F8E0300C
:1011C000D4F8E03003F001030C930C9BD4F8E0302A
:1011D00043F02003C4F8E030D4F8E03003F02003FB
:1011E0000D930D9B06F03EFC002208214D4806F0B1
:1011F00039FC00224FF480714B4806F033FC41F279
:1012000008332DA94648CDE92D35CDE92F9606F0B6
:101210009FFA2DA94548CDF8C490CDE92D8ACDE996
:101220002F9906F095FA2DA93E48CDE92D75CDE907
:101230002F5606F08DFA2DA93B48CDE92D85CDE935
:101240002F9606F085FAD4F8D4304A4605212B4370
:101250007A204FF00408C4F8D430D4F8D4304024B5
:101260002B400393039B05F079FA7A2005F0A8FA46
:101270002F4A30482DA9136823F0010313604FF45F
:1012800000622D4BC0F81C90C0F828908560CDF806
:10129000B4A0C0E900352023C0E903834FF4C07334
:1012A000C0E905434FF48053C0E908230723CDE983
:1012B00032AACDE92E38CDE930360AF0C1F981469F
:1012C00000287FF4EAAC04F035FF484604F080FFC4
:1012D000034600283FF4E3AC72B6FEE705F0D4F90C
:1012E000FFF7D6FBD5F8E030204643F00073C5F891
:1012F000E030D5F8E03003F000730293029B06F073
:10130000BFFB2146204606F0C9FB0C4C4FF6FF738D
:10131000226812043FF5DCAE013BF9D272B6FEE75B
:101320000024025800180258001402580000025805
:101330000040005298990024404100520044025855
:101340000268034B9A4201D105F0CCB9704700BF47
:101350000010004072B6FEE70A4B82B00F216FF01A
:101360000100D3F8F42042F00202C3F8F420002276
:10137000D3F8F43003F002030193019B02B005F0AF
:10138000EDB900BF00440258026882B0094B9A428E
:101390000DD1A3F50063D3F8E02042F40022C3F896
:1013A000E020D3F8E03003F400230193019B02B066
:1013B000704700BF004C02580F4B07B502689A42B5
:1013C00017D10E4B07215A20D3F8D42042F0100237
:1013D000C3F8D4200022D3F8D43003F010030193D3
:1013E000019B05F0BBF95A2003B05DF804EB05F052
:1013F000E7B903B05DF804FB001000520044025846
:1014000010B5BAB004461422002103A822F0E8FB6C
:10141000C822002108A822F0E3FB2368B3F1A04F03
:1014200038D14FF08062002308A8CDE9082309F0E5
:1014300097FA08B1FFF78EFF174B002403A917484E
:10144000D3F8E42042F01002C3F8E420D3F8E420FB
:1014500002F010020192019AD3F8E02042F40072E7
:10146000C3F8E0200422D3F8E03003F400730293C1
:10147000029B0223CDE903230D23CDE90544079305
:1014800006F066F97B202246072105F067F97B20EC
:1014900005F096F93AB010BD0044025800240258F5
:1014A00037B53C4B054602689A4270D13A4B02214F
:1014B0003A4C4FF0007ED3F8D420DFF8ECC0204641
:1014C00042F02002C3F8D4208022D3F8D43003F0B5
:1014D00020030193019B1123C4E900C30023C4E945
:1014E0000232C4E9073220222361C4E90513C4E9AA
:1014F00009E24FF4A0414FF40032C4E90D33C4E9CE
:101500000B1207F04EFF08B1FFF724FF002223481B
:10151000114607F0D4FF08B1FFF71CFF2C6313231B
:101520001F4A082125644FF4A0401E4CC4E9002343
:101530000023C022C4E9023220222362C4E9061239
:101540004FF00071C4E909124FF42032C4E90B02D4
:101550002046C4E90433C4E90D3307F022FF08B183
:10156000FFF7F8FE00220F48114607F0A8FF08B168
:10157000FFF7F0FE6C63002205217920256405F059
:10158000EDF8792003B0BDE8304005F019B903B09B
:1015900030BD00BF0030005200440258C09B002400
:1015A000C0010052549B00240002005210B5B4B098
:1015B0000446C822002102A822F012FB2268184B20
:1015C0009A422BD14FF000520023152102A8CDE9F9
:1015D0000223A1230522CDE90C230223CDE90E33FA
:1015E0004FF40063CDE9101309F0BAF908B1FFF721
:1015F000B1FE0C4B58200721D3F8E42042F008023A
:10160000C3F8E4200022D3F8E43003F00803019388
:10161000019B05F0A3F8582005F0D2F834B010BDB6
:101620000010005000440258F0B5BFB00446142228
:10163000002107A822F0D4FAC82200210CA822F029
:10164000CFFA2268534B9A4240F0A1804FF00072CB
:1016500000230CA8CDE90C2309F082F908B1FFF7AB
:1016600079FE4D4B022500240926D3F8D42007A982
:101670004A480A2742F48042C3F8D420D3F8D42041
:1016800002F480420192019AD3F8E02042F0400235
:10169000C3F8E020D3F8E02002F040020292029A60
:1016A000D3F8E02042F02002C3F8E020D3F8E02095
:1016B00002F020020392039AD3F8E02042F0800265
:1016C000C3F8E020D3F8E02002F080020492049AEC
:1016D000D3F8E02042F00202C3F8E020D3F8E02083
:1016E00002F002020592059AD3F8E02042F00802C7
:1016F000C3F8E020D3F8E03003F008030693069B1C
:101700004FF48443CDE90735CDE909440B9606F043
:101710001FF8402307A921480B97CDE90735CDE9EC
:10172000094406F015F8C02307A91D480B96CDE91A
:101730000735CDE9094406F00BF84FF4007307A90B
:1017400017480B97CDE90735CDE9094406F000F8B5
:101750000C2307A913480B96CDE90735CDE90944B9
:1017600005F0F6FF042307A90F480B96CDE90735CE
:10177000CDE9094405F0ECFF4FF4006307A90B48DD
:101780000B96CDE90735CDE9094405F0E1FF3FB0FF
:10179000F0BD00BF0050005200440258001802582B
:1017A00000140258001C025800040258000C025891
:1017B00010B5BAB004461422002103A822F010FA92
:1017C000C822002108A822F00BFA22681E4B9A4278
:1017D00038D10122002308A8CDE9082309F0C0F878
:1017E00008B1FFF7B7FD194B002403A91848D3F837
:1017F000F02042F01002C3F8F020D3F8F02002F0FD
:1018000010020192019AD3F8E02042F00102C3F8DD
:10181000E0204FF4C062D3F8E03003F001030293FC
:10182000029B0223CDE903230723CDE90544079357
:1018300005F08EFF25202246052104F08FFF25208C
:1018400004F0BEFF3AB010BD001001400044025841
:1018500000000258F0B5B9B00021142201A822F00E
:10186000BFF93F4B1968002977D1012208A81A60F7
:10187000C02222F0B5F94FF08072002306A8CDE90E
:10188000062309F06DF808B1FFF764FD354B022718
:1018900000260325D3F8D4200C2401A9324842F4B1
:1018A0008052C3F8D420D3F8D430059403F4805385
:1018B0000093009B40F2FF63CDE90365CDE901375A
:1018C00005F046FF602301A928480594CDE90137BA
:1018D000CDE9036505F03CFF4FF6837301A9244869
:1018E0000594CDE90137CDE9036505F031FF4FF4EB
:1018F0007F4301A91F480594CDE90137CDE9036570
:1019000005F026FF48F2331301A91B480594CDE9E1
:101910000137CDE9036505F01BFF4CF2037301A904
:1019200016480594CDE90137CDE9036505F010FFB0
:101930004FF63F0301A912480594CDE90137CDE9DF
:10194000036505F005FF012301A90E480594CDE9C3
:101950000137CDE9036505F0FBFE39B0F0BD00BFEE
:10196000389E002400440258002002580004025807
:1019700000100258001C025800180258000C0258AF
:1019800000140258000802581A4B1A6810B582BB9E
:10199000194A012440F2FF6118481C60D2F8D43083
:1019A00023F48053C2F8D43005F0BAFF6021144804
:1019B00005F0B6FF4FF68371124805F0B1FF4FF402
:1019C0007F41114805F0ACFF48F233110F4805F094
:1019D000A7FF4CF203710E4805F0A2FF4FF63F013E
:1019E0000C4805F09DFF21460B48BDE8104005F06E
:1019F00097BF10BD349E00240044025800200258B6
:101A00000004025800100258001C02580018025826
:101A1000000C025800140258000802580F2810B594
:101A200004468AB002D901200AB010BD0146002246
:101A3000362004F093FE362004F0C2FE184B6946AF
:101A400002A81C60174BD3F8E82042F01002C3F83C
:101A5000E820D3F8E83003F010030193019B08F06D
:101A600069FE079BC3B908F041FE0F4C0F4B236082
:101A700040F2E733E3600E4BB0FBF3F00138002394
:101A8000606020462361A36009F0B8FF0028CAD136
:101A9000204609F07DFEC7E708F028FE4000E4E795
:101AA00074000024004402583C9E002400100040B2
:101AB00040420F00FEE7FEE7FEE7FEE7FEE7704765
:101AC00001480AF007B800BFCC990024014809F08A
:101AD000A1BE00BF3C9E0024014807F07BBB00BFB5
:101AE000AC9A0024014805F01AB900BFA09C00245C
:101AF000014807F047BA00BF2C9C0024044808B5F1
:101B000007F062FD0348BDE8084007F05DBD00BF77
:101B1000549B0024C09B0024014805F002BB00BF79
:101B2000849C00240120704708B522F021F9162377
:101B300003604FF0FF3008BD08B522F019F91623F5
:101B40000360FEE770B50D4614460E46731B9C42BB
:101B500001DC204670BDAFF3008006F8010BF5E70D
:101B600070B50D4614460E46731B9C4201DC2046A0
:101B700070BD16F8010BAFF30080F5E74FF0FF30B2
:101B800070474FF4005300204B60704701207047AE
:101B9000002070470B4A0346116810B509B90A497D
:101BA0001160106809490A4C0344091B8B4206D98D
:101BB00022F0DEF80C2303604FF0FF3010BD1360FD
:101BC000FCE700BF889E0024F06202240000082485
:101BD00000100000DFF834D004F0E6FC0C480D499A
:101BE0000D4A002302E0D458C4500433C4188C4278
:101BF000F9D30A4A0A4C002301E013600432A242DE
:101C0000FBD322F0BBF8FEF7A5FF704700000824C5
:101C1000000000243C010024A89F020840990024F1
:101C2000EC620224FEE7704708B501F025FDBDE82F
:101C3000084001F0A9BC01F021BD40687047416037
:101C40007047521A02EB5302B2FBF3F070470000E8
:101C5000024BC0681B685B6A584370478C9E002427
:101C60007047000037B51E4A4FF0804105464FF0DF
:101C7000FF30D2F8E83043F00103C2F8E830D2F880
:101C8000E83003F001030193019B164B196000211A
:101C9000D86019619960596001215961D369102296
:101CA00003F0700392FAA2F2B2FA82F2D3400E4A23
:101CB000D35C83B908F0F8FC044608F02DFBB0FBB8
:101CC000F4F0E860074809F099FE064803B0BDE863
:101CD000304009F023BD08F009FD4400EDE700BFE6
:101CE000004402588C9E0024AC6E020810B50446D5
:101CF000102121F062F9204610BD38B50368044672
:101D00001B6931B18568984763685B1B0344636056
:101D100038BD9847A060FBE770470000F8B50A4B54
:101D20000F4616461D7815B900252846F8BD074C04
:101D30000020214604F0DCFB2368002BF4D063680C
:101D40003B60A3683360F0E7E89E0024D89E00243F
:101D500010B50446042121F030F9204610BD0000E2
:101D600008B50E4B4FF44872002019684FF4F07319
:101D7000C1E900230C23C1E9023004F029FB084B20
:101D800010B901221A7008BD1B78002BFBD1054B3E
:101D90002E21054A054821F087FC00BFE49E00245F
:101DA000E89E0024A9470208BC470208E64702084B
:101DB000032825D8DFE800F0020B131B114B082184
:101DC0001A68B2FA82F252090F4805F04BBE0D4B69
:101DD0004FF480715A68B2FA82F25209F4E7094B63
:101DE0004FF400719A68B2FA82F25209ECE7054B9F
:101DF0004FF480710548DA68B2FA82F25209E4E7DA
:101E0000704700BFEC9E00240024025800140258C2
:101E1000032825D8DFE800F0020B131B114B082123
:101E20001A68003A18BF01220F4805F01BBE0D4B7F
:101E30004FF480715A68003A18BF0122F4E7094B49
:101E40004FF400719A68003A18BF0122ECE7054B85
:101E50004FF480710548DA68003A18BF0122E4E7C0
:101E6000704700BFEC9E0024002402580014025862
:101E7000032811D8DFE800F00206090C0821074802
:101E800005F0F5BD4FF48071F9E74FF40071F6E706
:101E90004FF480710248F3E7704700BF00240258F6
:101EA0000014025808B5032815D8DFE800F0020A2C
:101EB0000D100821094805F0CFFD431E5842584136
:101EC00008BD4FF48071F5E74FF40071F2E74FF46D
:101ED00080710348EFE70020EFE700BF00240258BD
:101EE0000014025870B5084D00240126E0B2FFF737
:101EF000D9FF18B12B68012B18BF2E6001340435AF
:101F0000052CF3D170BD00BFEC9E0024012380F8A6
:101F1000781080F8793070477047002070470000D3
:101F200041640039024B18BF01211970704700BF8E
:101F3000CB550224704700207047836B0BB10846D5
:101F4000184770474FF6FF707047406803689B69F9
:101F50001847704770470000014B1868704700BF72
:101F6000109F0024704701F086BC01F017BC01F0FF
:101F7000E7BD01F0D9BD000010B5044601F09CFD9D
:101F800094F84B3013B1024B01221A7010BD00BF00
:101F90000C00002401F00ABC10B504460EF0BCF899
:101FA00023682046D3F8BC30BDE81040184710B570
:101FB00004460DF017FC60680368BDE810401B691B
:101FC00018470DF0D7BA10B50446842120F0F5FF6C
:101FD000204610BD024B00221A700DF007BB00BF57
:101FE0000C00002438B50446064D01F005FC002322
:101FF000284684F84A30FFF735FE0123256184F82E
:10200000703038BD009F00240368044607B5D3F83C
:102010008430984723682046DB6F984700F066FFBE
:10202000236820465B6F9847002129231522054825
:10203000009105F086FA00F059FF236820465B6F97
:102040009847F8E7849C002490F834100D4B10B5A5
:1020500090F878401A788C4209D03AB90A490B4A6C
:1020600008881488108001220C801A7010BD002A84
:10207000FCD0064A0449148808880C80108000228D
:10208000F3E700BFC4550224C2550224C055022400
:1020900008B5094B1B888B4203D8084B1B88934219
:1020A00005D9074BA321074A074821F0FDFA074B42
:1020B0001980074B1A8008BDC0550224C25502245E
:1020C0003448020897480208DA480208C655022434
:1020D000C8550224034690F87A0018B1586803687E
:1020E0001B6818477047000070B50D4619460B4B2A
:1020F0001D6035B90A4B40F2FF210A4A0A4821F017
:10210000D3FAC0E90F52003A084B18BF01221A70E7
:102110000368BDE87040D3F890301847109F002442
:102120002D49020865490208DA480208CA55022406
:1021300070B5C0E90112C3604FF480720023BDF88E
:102140001460BDF810500321038580F82A30203533
:10215000C3620386ADB280F858304366B54280F85A
:102160007030C0E912231C4AC0E91A231B4AC0E997
:102170000433C0E90633C0E90833C0E90E33C0E9CF
:102180001033C0E91433C0E91733436782674FF453
:102190008062A0F87C204FEA9602A0F87E20B2FB75
:1021A000F1F2A0F880204FF01402A0F882200C4A2F
:1021B00010600C4A15800C4A158028BF00250B4A78
:1021C00038BF012516800A4A80F834501680094A23
:1021D0001370094B036070BD010000010000010194
:1021E000CC550224C0550224C6550224C2550224EF
:1021F000C8550224C4550224F4660208012B13B505
:102200000ED8D35C152200930B460146084805F012
:1022100098F918B16FF0070002B010BD0020FBE77D
:10222000CDE9001201463922014805F09BF9F0E79B
:10223000849C00241FB5CDE90112062100910146BE
:10224000054805F0EFF9002814BF6FF007000020E3
:1022500005B05DF804FB00BF849C00241FB54FF25D
:1022600001430B4C39220021ADF80C3003AB204662
:10227000019344230093022305F074F900213523D0
:1022800015222046009105F05CF904B010BD00BF96
:10229000849C002408B5FFF7E1FF0C4B02221B6869
:1022A000C3F810240122C3F81024D3F8082442F004
:1022B0000102C3F80824D3F8082442F00202C3F84C
:1022C00008240322024B5A6308BD00BF849C0024EB
:1022D00000100050074B07B5197839B9012206489C
:1022E0001A7029231522009105F02BF903B05DF82F
:1022F00004FB00BFFC9E0024849C0024064B07B511
:1023000001932A233922002100930423034805F076
:1023100029F903B05DF804FB08000024849C002424
:10232000064B07B501932A23392200210093042389
:10233000034805F017F903B05DF804FB040000241E
:10234000849C002438B5154D04460020FFF730FD6D
:102350002B6893F86A20013283F86A20002283F800
:102360007C2000F0B7FD0E4B2A6819781B7882F8A4
:102370004A1073B10B4D2B7803F0FF024BB90A4B97
:102380001A60FFF7BBFF204605F0CBF801232B7046
:1023900038BD0020BDE83840FFF73ABDCC550224D7
:1023A0000C000024189F0024149F00242DE9F04302
:1023B000494E85B004463378002B00F08980DFF861
:1023C0003C91DFF83C81D9F80050444F002D3ED1BC
:1023D0000120434E04F098F923680095D3F80424B3
:1023E000386822F0080200F59660C3F80424D3F898
:1023F000042402F008020092009AD8F80020C2F8E3
:10240000AC0038480661384E46613848C2F888004A
:102410003748C2F8B000516A41F00101516201959C
:10242000D3F8042442F00802C3F80424D3F8043497
:1024300003F008030193019BFFF772FF012320467D
:10244000C9F8003005B0BDE8F04305F06AB803688C
:10245000002538680295D3F80424264C22F008029F
:10246000C3F80424D3F8042402F008020292029A6A
:10247000D8F80020C2F8AC001A48046104F1011435
:1024800044611A48C2F888001948C2F8B0002846CA
:10249000516A41F0010151620395D3F8042442F0DE
:1024A0000802C3F80424D3F8043403F008030393A8
:1024B000039BFFF7ADFCFFF70DFF0F4B35701C685A
:1024C00034B1236820461B6A9847012384F87C3086
:1024D00005B0BDE8F08300BF189F0024109F0024C2
:1024E000E201B20100100050E301920103009201E9
:1024F000B304C009E2019201CC550224149F0024C8
:10250000AC9A0024014608B5034B186801B10121BB
:102510000DF01CFE012008BDCC550224034B002207
:102520005A609A60024A1A60704700BF009F0024F8
:10253000B46602084069704790F840007047036B2A
:1025400023B9C06A003818BF0120704701207047C6
:10255000806870477047043010B50C460FC884E897
:102560000F0010BD7047000008B5034A4FF4E47136
:10257000024B034821F098F8B3490208E4630208CB
:102580000E4A020810B50446482120F016FD2046E8
:1025900010BD000000220E4B10B51146044603602A
:1025A000C26380F84020C0E90522C0E90722C0E9E3
:1025B0000922C0E90B22C0E90D22C0E90322C0E9CB
:1025C000012201200AF0F4FB024B1860204610BDE6
:1025D000E0670208389F002410B40C4611461A46E2
:1025E000036B3BB1C36B406BE41A20445DF8044BB2
:1025F00021F0FEBAC06AF8E7036B10B573B1C36B84
:10260000426BC91A5318525C98785C78000440EA0F
:1026100004201043DB7840EA036010BDC26A5318FF
:10262000525C59789878000440EA0120F1E7036B86
:1026300043B1C36BC91A436B5A18585C527840EACD
:1026400002207047C36A5A18585C537840EA032046
:102650007047000070B50446006B0D461646D8B1B1
:10266000A36B934208D209230D4AA0210D4884F898
:1026700040300D4B21F018F80368DB689847206B59
:102680003246616B03681B69984710B90D2384F8C3
:102690004030606BE56370BDE06A0844FBE700BF53
:1026A000794A02080E4A0208664A02082DE9F843F0
:1026B000436904462BB9224BE621224A224820F0E6
:1026C000F3FF08228169FFF7C5FFA16943F23006D5
:1026D00046F2643704312046FFF78EFFA3691844A1
:1026E000A36A00F108029A4206D301230020636125
:1026F000236AA361BDE8F883636900F10901082238
:102700002046013321F001016361A161FFF7A2FFBF
:10271000D4F8189020464946FFF789FF09F10201D5
:1027200080462046FFF783FF09F104010546204655
:10273000FFF762FFB045D1D1BD42CFD10120D9E72B
:10274000BB4A0208044B02080E4A0208012903682A
:1027500038BF0121DB6A70B50D4604469847A84290
:1027600004D223682046DB6A984705466B1EE6695B
:102770001022204606EB031606F10801FFF76AFF58
:1027800006F110012046FFF737FF236A043B03449C
:10279000C4E9055370BD0000002148222DE9F04135
:1027A0000446816180F84010FFF754FFA6690423B6
:1027B000634A31462046FFF70FFF48B10323614AC1
:1027C0004FF4977184F840305F4B604820F06CFF05
:1027D00006F1080104235E4A2046A161FFF7FCFED2
:1027E00038B10423574A4FF49B7184F84030594B59
:1027F000EBE706F10C010423574A2046A161FFF7DD
:10280000EBFE074638B105234E4A40F23D1184F8ED
:102810004030524BD9E706F110012046FFF7ECFE9D
:10282000054620B94E4B40F24311464ACDE706F12A
:10283000140804234B4A20464146FFF7CDFE0028EA
:1028400049D0062384F840300423474A06F1180192
:102850002046FFF7C1FE00283FD0072384F8403010
:102860004544424F0C2220462946FFF7F3FE05F16E
:10287000080604233A4620463146FFF7ADFE94F899
:102880004030002848D0002B48D1A36AAB4249D839
:1028900005F10C0304352046A3612946FFF7ACFE81
:1028A0003044294660622046FFF7A6FE0644042213
:1028B00020463146FFF7CEFE04232D4A31462046FE
:1028C000FFF78AFE002838D10123E6616361A3691E
:1028D0002362BDE8F0810127B6E7002FC0D006F1E2
:1028E00020012046FFF788FE4FF47A7306F130018D
:1028F000B0FBF3F060602046FFF77EFE06F140017A
:10290000A0602046FFF778FE06F14401E060204613
:10291000FFF772FE2061A3E7002BB9D00A2384F8E9
:102920004030D6E7291D2046FFF766FE85190C22A8
:1029300020462946FFF78EFE99E70B23EFE700BFFD
:10294000374B0208554B02083C4B02080E4A02085E
:10295000824B0208874B02089F4B0208A44B0208D7
:10296000BA4B0208C64B0208CB4B0208D04B0208F8
:10297000D54B0208C0E90A2100220263FFF70CBF11
:1029800010B5002304460846E3620B6821639B6888
:102990009847A0622046BDE81040FFF7FDBE00004A
:1029A00037B5134B0024134D1C60134B1C60134BA5
:1029B0002C601C60124B1960124B1A60124B1C6089
:1029C000124B2A684FF4C0751C701C74C3E9024492
:1029D000C3E9064403EB02130D4AD2686A4300922E
:1029E0004FF450425B6805F045FF204603B030BD10
:1029F000509F0024409F0024349F0024609F0024A7
:102A0000589F00245C9F00243C9F00241000002459
:102A10001C9F00244B68012B15D1CB681A071EBFE1
:102A200023F00F031033CB608B6818071EBF23F011
:102A30000F0310338B60CB688A681B09120953435C
:102A40000E4A13607047022B0ED1CB681A0703D0D1
:102A500023F00F031033CB608B685A071EBF23F09F
:102A6000070308338B607047002BFCD1CB685807F5
:102A7000F2D023F007030833EDE700BF489F00249E
:102A80000B4A13680B4430B413600A4A126893422D
:102A90000CD2094CD21A2568B2F5504F294428BFF0
:102AA0004FF45042216030BC05F046BF30BC704747
:102AB000609F00245C9F0024589F0024F8B5204CA0
:102AC0000121204D064623681F4F1B01E95423684E
:102AD00005EB03139A601D4B1968226805EB02127F
:102AE000D1601A68F9680A441A60236801332360C8
:102AF0002368012B01D90023236023681B01EB5CB1
:102B000033B10221304605F0E9FE114B01221A6073
:102B100022683046FB6805EB02154FF4C072696805
:102B20005A4305F00CFF0B4B1B681A7A3AB99B7A93
:102B30002BB9094B1868BDE8F8400AF0AFB9F8BDE9
:102B4000409F0024100000241C9F00243C9F002470
:102B5000509F0024449F0024389F002472B6FEE753
:102B6000014B01221A607047549F002438B5164D5E
:102B700004462B6813B1154B1B681BBB144B18681C
:102B8000037A63B9134B144A1B681B01D35C012BF6
:102B900005D10E4B1B6813B903681B6998470F4A90
:102BA0001368012B0CD10E4B0B491B681B01CB5C2E
:102BB00033B92B6823B902212046136006F0EBF8E5
:102BC000022038BD0120FCE7549F0024309F0024E0
:102BD000449F0024349F002410000024509F0024B0
:102BE000409F002470B50546002A37D0002B35D011
:102BF0001B4803240461EC6826074FF4166618BFCF
:102C000024F00F04466018BF103404602409C46027
:102C10002C6914F00F0418BFC4F11004846011482B
:102C2000114C03601148FFF7BBFE6A6C104B0F4D4F
:102C30001A602846FFF79AFF20602368022B05D10F
:102C40000C4B4FF0FF3118680AF0FCF82368012B99
:102C5000EFD10023084A1360084A136070BD00BF1B
:102C60001C9F0024649F00244C9F00242C9C002463
:102C7000449F0024389F0024549F0024309F002448
:102C80002DE9F04F9946436985B004460F469046BA
:102C90002BB9294BB221294A294820F005FD0822E9
:102CA0008169FFF7D7FCA66920463146FFF7BFFCD4
:102CB000B11C83462046FFF7BAFC311D82462046F0
:102CC000FFF79AFC06F10801A36A05460A189A4222
:102CD00026D243F230039B4517D146F264339A451E
:102CE00013D190B10246A1612046FFF7B3FC0E9BC1
:102CF00001462A462046CDF80080CDE901933B46A7
:102D0000FFF770FF636901336361A3692B4405B961
:102D100008330133626A23F001039342A36109D1AE
:102D2000012301206361236AA36180F0010005B0E3
:102D3000BDE8F08F0020F8E7BB4A0208DA4B020832
:102D40000E4A0208F8B50446816916460822FFF7C4
:102D500081FCA7692046391DFFF74EFC07F10801E9
:102D6000024605462046FFF775FC01466EB12A462D
:102D7000074C084D33460748FFF712FE2846FFF779
:102D8000F5FE20602368002BF8D00120F8BD00BFBD
:102D90004C9F00242C9C0024F0B5C7680122154CE0
:102DA0003901154E2368B1FBF3F163685943134BA6
:102DB0005A630901E26836681505B61AB74215D399
:102DC000A468C4F110042C435C640D4CC2F13202BF
:102DD000246812012144D9631A6400221A61094A45
:102DE000DA614268DA60084A1A60F0BD45F0100501
:102DF0005D64EAE71C9F0024489F002400100052F5
:102E0000649F00240B0009FF012301000C4B0022EA
:102E1000027019688260013119601968012900D9AE
:102E20001A60084B084A1B68D2689B1AC2689A420B
:102E300002D3064B01221A60054B18680AF02EB81F
:102E4000349F0024489F00241C9F0024309F0024AE
:102E5000389F00240121002208B5084609F0A8FF88
:102E60000A4B186028B90A4B28210A4A0A4820F060
:102E70001BFC0022042101200AF042F8074B1860D5
:102E800018B9074B2C21034AF0E708BD6C9F0024BA
:102E9000354C02087E4C0208AD4C0208689F0024A5
:102EA000FB4C0208024B4FF0FF31186809F0CABF13
:102EB0006C9F0024014B186809F0F0BF6C9F002440
:102EC000024B0021186809F0BDBF00BF6C9F0024B1
:102ED000FFF7F0BF0023034803491A4600680AF0D1
:102EE0004AB800BF689F00243000002413B50023B7
:102EF000074C01A91A4620680AF06EF84FF0FF331C
:102F0000002201A920680AF067F802B010BD00BFD6
:102F1000689F002403685B6C184701207047FEE738
:102F200040F2EF307047000010B504464FF0FF311B
:102F3000D0F8A40D09F0FAFE606803681B68984792
:102F400078B9637A6BB1237A5BB984F8A03D2046E7
:102F500023685B6A9847D4F8A40DBDE8104009F0D7
:102F600008BF0B490B4A0B681B01D35C012BF2D144
:102F7000207A0028EFD1A07A0028ECD1086884F8E4
:102F8000A03D02EB00102372FFF706FFE3E700BF4E
:102F9000349F002410000024054B4FF08062036032
:102FA000044BC3F88820BFF34F8FBFF36F8F704778
:102FB0002468020800E100E010B5044640F6A8517C
:102FC000FFF7EAFF20461FF0F8FF204610BD000083
:102FD000104B82B0D3F8D42042F01002C3F8D420B2
:102FE000D3F8D42002F010020192019ADA6F42F075
:102FF0001002DA67DA6F22F01002DA67064B074A2E
:103000001A62074A5A62074B4FF080629A6002B018
:10301000704700BF00440258A09C00246D32000895
:103020001F2F000800E100E008B50A2809D8DFE8F2
:1030300000F006100E0808080810101010000220FA
:1030400008BD054B9121054A054820F02DFB0020C5
:10305000F6E70120F4E700BF3D4D0208584D020895
:10306000A34D020838B50C46887FFFF7DDFF124BF1
:10307000A58AE28A586342EA054221695A64628B52
:10308000D963521B1A642568082D0ED19A611A6102
:1030900058620A4A207F42EA0062DA61E2681A62F4
:1030A000074A5961D9601A6038BD0022D8611A6197
:1030B000E2689A63034AF6E7001000520900010033
:1030C000012302000123030008B50B280BD8DFE819
:1030D00000F00612100A0A0A0A0808080808022066
:1030E00008BD0520FCE7054B7021054A054820F086
:1030F000DBFA0020F4E70120F2E700BF3D4D0208B3
:10310000EF4D0208A34D02082DE9F8434F7F894691
:103110003846FFF7D9FF99F81E5080462846FFF73A
:10312000D3FF06462846FFF77FFFB9F81410B9F819
:103130001A40B9F81820454B641A521A1C649C6155
:103140001A61B9F81620586342EA0142D9F8101002
:103150005A64D9F80420D963DA60D9F8004099F8A4
:103160001C20802C22D00FD8202C66D0402C64D07C
:10317000042C5CD048EA0260344BAF4240F400308B
:10318000D86160D0324A3FE0B4F5807F04D0B4F516
:10319000007FEFD12F4800E02F4840EA0262DA6159
:1031A000D9F80C201A625E6259612CE048EA02608C
:1031B000D9F8084040F40030D8615E625961211DA1
:1031C000D962217841B1012921D0244B40F20B1161
:1031D000234A244820F068FADA69618822F47F42A1
:1031E000013922F0100242EA0122DA610122174B72
:1031F000D96941F02001D961D9698906FCD410212F
:103200009960002ABED0184A1A60BDE8F883D969CF
:10321000FF3A608821F47F4118BF0122013821F074
:10322000100141EA002141F01001D961DFE748EACD
:10323000026242F40032DA61B5E748EA0262034B07
:1032400042F40032F7E742F20132DDE700100052AB
:1032500001230100090002000A000200394E0208A1
:10326000534E0208A34D020801230200024B1B68C3
:10327000586803685B691847CC55022490F8A03D54
:1032800010B50446D3B903689B6A984719491A4A8E
:103290000B681B01D35C012B2AD11848006838BB8E
:1032A000207A28BBA07A18BB086884F8A03D237256
:1032B00002EB0010BDE81040FFF76EBD037A43B18A
:1032C000002303720B4B18680B4B03EB0010FFF746
:1032D0009DFD606803681B68984748B9637A3BB1F5
:1032E000236884F8A00D20465B6ABDE810401847AB
:1032F00010BD00BF349F002410000024309F002424
:1033000070B504460E4B0C300026254660226060E6
:103310002672667245F8203B29460DF059F804F5EF
:103320005A63EE6024359D42FBD184F8A06D0020E5
:10333000C4F8A46D09F0C2FCC4F8A40D204670BD09
:1033400024680208034B1A68D207FCD423229A602F
:10335000704700BF001000520B4A5369DB0311D5C0
:1033600000290FDD00F01F031944BFF34F8F014404
:10337000C2F8680220300B1A002BF9DCBFF34F8F24
:10338000BFF36F8F704700BF00ED00E030B5104C09
:103390002568ED07FCD423250904FF2BA5604FF019
:1033A000010541EA050165636164E0630CD00949E8
:1033B00022F07F42656241EA0363E361064B2262C9
:1033C0006061E060236030BDE561044BA263F9E712
:1033D000001000520900010001000200010003007A
:1033E00030B50E4C2568ED07FCD423251204FF2BC5
:1033F000A5604FF0010542EA050265636264E0637F
:10340000E16007D0064A42EA0363E36165626061F6
:10341000226030BD034BE3612560FAE700100052E3
:1034200001000200010002FF30B50B4C2568ED07DA
:10343000FCD4232512041B06A560012543F40033A8
:103440002A4365636264E063E160E361034B6562A4
:103450006061236030BD00BF001000520100020017
:10346000012070470C2070470C2303FB010008303B
:1034700070470C2303FB01000830704701207047A0
:103480004FF43A7070474FF43A7303FB0100083071
:1034900070474FF43A7303FB010008307047012076
:1034A00070471020704700EB01100830704700EBA8
:1034B000011008307047084600F046BE034B10B5B7
:1034C000044603600BF0ADFD204610BDDC68020829
:1034D00010B50446FFF7F2FF142120461FF06DFDE2
:1034E000204610BD034B10B5044603600BF099FD58
:1034F000204610BDA868020810B50446FFF7F2FF89
:103500004FF43C7120461FF058FD204610BD0000CE
:10351000034B10B5044603600BF083FD204610BD3D
:103520007468020810B50446FFF7F2FF1821204620
:103530001FF043FD204610BD084B10B50446036044
:1035400000F54770FFF7BAFF04F12C00FFF7CAFF40
:1035500004F11400FFF7DCFF204610BD10690208DB
:1035600008B50248FFF7E8FF08BD00BF30AE0024F1
:1035700010B50446FFF7E0FF4FF4B26120461FF09C
:103580001CFD204610BD00002DE9F34100F052FC67
:103590000024054600F052FC2346014622462846F8
:1035A000009414F033FF274B274A2046274D1A601A
:1035B00001F016F9264B274A27489A6014F0D2FDED
:1035C0002B68BFF35B8FDB0735D428461FF0F7FC71
:1035D00088B3224C224B04F2344604F1140004F167
:1035E0002C0804F5477723606060C4F80880E76022
:1035F00026610BF017FD1B4B404663610BF012FD7B
:10360000194B3846E3620BF00DFD184B04F54C7076
:10361000C4F81C3301F068F9224604F54C713046B9
:1036200001F058F9304600F08FFD114820F05AF8AB
:1036300028461FF0D0FC0F4802B0BDE8F041FEF76D
:10364000D1BC00BF30560224F49F00242CAE0024CD
:1036500014A00024F89F00243400002430AE00247D
:103660001069020874680208A8680208DC68020889
:1036700061350008709F0024704700000148FEF784
:10368000C3BC00BF709F002473B50E4C0E4B0F4E91
:1036900020460F4D3360FFF733FE284618F020FD1B
:1036A0000C4812F01BFB4FF448734FF4F0722146A4
:1036B0000948CDE9003233462A46FEF739FD02B00B
:1036C00070BD00BF80A00024DC66020828AE002484
:1036D00014A00024F89F0024709F00240148FFF7E5
:1036E0005BBC00BF80A00024002070478180704731
:1036F000C1807047018170474181704770477047B2
:1037000070477047704710B4C4880368121B8488E0
:103710005B6D091B12B25DF8044B09B218474FF6F6
:10372000FF7383814FF0FF3303621368C36110603E
:103730007047002070478B88838001207047704756
:1037400080F82610704790F82600704710B50022C8
:10375000B1F90840B1F90A10028042808480C1802A
:1037600010BD0022028042808280C28070470177B3
:10377000704780ED080A704780F82410704780F881
:103780002510704701207047983070478C30704783
:10379000843070477047704770470000024B90229A
:1037A00083F85A23704700BF00E100E070470163CF
:1037B000C0E90D217047704700EB81001146406859
:1037C0000368DB68184780F83C10704710B5044662
:1037D00048211FF0F2FB204610BD10B504462C21F5
:1037E0001FF0EBFB204610BD10B50446BC211FF0B6
:1037F000E4FB204610BD000038B504460BF00FFF77
:1038000023689D6E10F0FCFF01462046A847236800
:1038100008492046D3F88C5000231A46A84763680D
:10382000054A5364054B5A60054A1A639A63054A70
:103830005A6338BD009411D0C8B4002480B4002469
:10384000000000D00094110038B504460D46406CCD
:103850004FF0FF3109F06AFA606C09F08AFA24230C
:1038600003FB0545002385F8283094F828300BB970
:10387000236BA36338BD0BF083BE0BF0F2BF90F84F
:10388000252012B103685B6918477047124A5369D3
:10389000DB0370B51ED50023C2F88430BFF34F8F11
:1038A000D2F8803043F6E074C3F3C900C3F34E335B
:1038B0005B0103EA0406014646EA81750139C2F854
:1038C0007452F9D2203B13F1200FF2D1BFF34F8F86
:1038D000BFF36F8F70BD00BF00ED00E008B531B1E0
:1038E000044B4FF4B871044A04481FF0DDFE90F811
:1038F000290008BD914E0208A54E02082F5002086B
:1039000010B531B1064B4FF4B571064A06481FF0A9
:10391000CBFE406811460368BDE810401B6B18479A
:10392000914E0208795002082F50020808B529B1BB
:10393000034B7921034A04481FF0B6FEC06808BD56
:10394000914E0208275202082F50020810B5044673
:1039500029B1194BA221194A19481FF0A5FE052AC1
:1039600015D8DFE802F0031115171C224068036820
:103970001B69984758B1012384F8293084F82C300A
:103980000023C4E9043302E0002380F8293010BD8D
:103990000362F5E70362012380F82A30F0E7002391
:1039A00080F8293001230362F1E7003B18BF0123AF
:1039B00080F82D30EBE700BF914E0208DC5302087F
:1039C0002F50020810B50C4611461A462CB1064B72
:1039D0009021064A06481FF067FEC46040680368ED
:1039E000BDE810409B681847914E0208B055020888
:1039F0002F50020808B529B1054B8221054A064817
:103A00001FF052FEC0E90411C0E9063208BD00BF34
:103A1000914E02088B5702082F50020890F83D3053
:103A200010B5044653B14FF0FF31406C09F07EF9F8
:103A3000002384F83D30012384F83E3010BD90F817
:103A400025201AB190F8242002B1186070470000B8
:103A500010B50446104629B1134BD021134A14481F
:103A60001FF022FE94F8293033B1124B1B6893F8F3
:103A70006B2063691344636194F82B300BB9012008
:103A800010BDA368036303685B699847002394F83B
:103A90002C0084F82B300028F1D194F82D30002B25
:103AA000EED184F82900EBE7914E0208475902084D
:103AB0002F500208CC55022470B51A4C05460BF065
:103AC000A1FD94F8293013B994F82A30ABB1E1691B
:103AD000D4E90532534322694A4393420DD394F803
:103AE0003C0038B19B1AB3FBF1F2994298BF02F146
:103AF000FF326262012384F82E300123206C84F8A7
:103B00003D3009F0CBF994F83E302BB1606C09F0F0
:103B100030F9002384F83E3068680368BDE87040DF
:103B20001B69184780B40024044B4FF08062C3F82F
:103B30008820BFF34F8FBFF36F8F704700E100E025
:103B4000024B4FF080629A60704700BF00E100E0D6
:103B5000F8B5034690F82800D8B94FF480729E6BF0
:103B60000125D8609A8506F58C12186102F5A052DD
:103B700058619861D861186258629D6283F82E007E
:103B8000D3E90C473C44A2420AD90B4B52210B4AC1
:103B900003E00B4B40F2C5110A4A0B481FF084FDAD
:103BA0009E609A634FF4487381F83450CB864FF48B
:103BB000F07308630B87F8BD9F5C0208DA5C0208AB
:103BC000E85A0208185B02082F500208002370B55B
:103BD000124E04468380124B0360336893F85820DA
:103BE0000AB1D86C00B998680368DB6A9847431E2D
:103BF0005D425D413368D86C30B10368DB6A984739
:103C0000012808BF45F001052DB9064B2721064ABA
:103C100006481FF049FD204670BD00BFCC55022468
:103C2000246902087D5E0208DB5E0208145F020858
:103C300070B5254E3568BFF35B8F15F0010540D197
:103C400030461FF0BCF900283BD0204C204B04F13B
:103C500034002561E584A562A585C4E90035C4E981
:103C6000025512F020FB04F158000DF0F1FF194B42
:103C70002046A365184B40F8843BFFF7A7FF174B7E
:103C80001748C4F884302433C4F89050C4F88C30FA
:103C90004FF4C803C4F89C50C4F8A850C4E92835B0
:103CA0000023C4F8AC30C4F8B030C4F8B430C4F861
:103CB000B8300C4BC4F898301FF014FD30461FF09C
:103CC0008AF9024870BD00BFC0B30024C4B3002409
:103CD0005872020844690208BC690208A47202080A
:103CE00099370008DC7202082DE9F74304460126E3
:103CF0004FF416674FF0FF31206C09F0A3F84FF036
:103D0000FF31606C09F012F894F82E3043B3656807
:103D1000D4F820802B6884F82B60B8F1000F23D0F2
:103D20005B6A414628469847002323622B684FF47C
:103D3000487200972846D3F814804FF4F073A168B6
:103D4000C047236984F82C0001332361F0B12B684C
:103D500028469B6A984701380023E06084F82E309B
:103D6000606C09F006F8C5E7626A002ADED02846D2
:103D7000D3E909939847616A01442846C8472369F3
:103D8000626AC4F8248013442361CFE70120E3E78B
:103D9000014808B5FFF7A8FF80B4002438B51448DF
:103DA0000025FEF7F7FB134C134B2A46294601204A
:103DB00023604FF48073A563A387A38584F83E50E6
:103DC00084F82E50C4E90C55C4E91055C4E90155D6
:103DD000C4E90355C4E90555C4E90755C4E90955C3
:103DE00008F0E6FF2064284608F068FF606438BDEC
:103DF000C8B4002480B40024086A0208704710B5D3
:103E0000044604211FF0D9F8204610BD012908B549
:103E100006D0022908D059B900F02EFD006808BD6F
:103E200000F02AFD4068FAE700F026FD8068F6E71A
:103E30000020F4E700487047586A020801207047E4
:103E400013B5002451B1036801AA01948DF8034011
:103E50009C680DF10303A04702B010BD0846FBE7C4
:103E6000C0897047008A7047C08870478088704753
:103E7000807A00F07F007047807AC0097047002088
:103E8000704700009FED010A704700BF000000006E
:103E9000704710B5044608211FF08FF8204610BD6A
:103EA0007047704700F598730868496803C3704706
:103EB000704770474160704770477047064BC0F8C5
:103EC0004801C0F84C310023C0F8503100F5A2730E
:103ED000C0F84031704700BF7D3F000801230372E6
:103EE0007047704710B441680346C2689B6854101D
:103EF00001EB6200D20748BF0A595DF8044B48BF86
:103F0000D35818470346406830B19A681AB9D86840
:103F100000F0010070470120704710B504460C21E5
:103F20001FF04BF8204610BD10B5044610211FF0BD
:103F300044F8204610BD10B504464FF4AE711FF092
:103F40003CF8204610BD10B510F05AFC0368BDE8DF
:103F50001040DB6B184710B50446D0F8400158B14B
:103F60000368DB68984738B1D4F8400103689B6860
:103F700098470023C4F8403110BD00002DE9F14FEF
:103F8000D0E9556A0746B06803681B6A9847B0F5E0
:103F90003A7F05D2444BA321444A45481FF084FB95
:103FA000706803681B6A98470F2803D8414BA42107
:103FB0003E4AF2E7F06803681B6A98470B2803D86B
:103FC0003D4BA521394AE8E7DFF8F49010F018FCE2
:103FD000043010F03AFCD9F8000010B10368DB6837
:103FE0009847D9F8000010B103681B689847DFF8BC
:103FF000D480D8F8000010B103685B699847D7F8FF
:104000003C0110B103685B689847D8F8000010B114
:1040100003681B689847D7F83C0110B103689B6898
:104020009847F06800214FF0000B03685B6A9847DF
:10403000224B0446C0F804B080F808B0594603602B
:10404000B06803685B6A9847054600F0ADFC70688D
:10405000594603685B6A98470646294600F082FC89
:10406000331DC7F83C612846C9F80040C8F8005025
:10407000CAF800302B68C6F808A0DB68EE639847E2
:10408000336830461B6898472146284612F06EFD7B
:10409000236820461B699847236820465B6901B066
:1040A000BDE8F04F184700BF845F020812600208A5
:1040B000E460020839610208DC610208F06A020863
:1040C0001456022410560224044B1B6893F85820FF
:1040D0000AB1D86C00B99868704700BFCC5502246B
:1040E000F8B5174604460E4610F050FC124B00255A
:1040F0001C602946114B2360114BC4E95135114B0B
:104100001868C4E953550368C4E94F559B68C4E96E
:1041100055769847284600F063FBFFF7D5FF19F066
:10412000E0F8FFF7D1FF19F053F9FFF7CDFF19F0D1
:104130005BF92046F8BD00BF205602249C6A0208A5
:10414000846A0208CC550224064BC0F84801C0F826
:104150004C310023C0F8503100F5A273C0F8403153
:10416000704700BF7D3F0008406A7047806A704713
:1041700070470B888A889BB2D20A10B54C88C169F7
:1041800043EA044351F82200184410BD10B5044618
:10419000BAB1107B68B1537BD27A1B0203F4E0639F
:1041A0001A43236A03EB82031A888A4202D193F9E5
:1041B000020010BD05D80138043380B20028F3D1C5
:1041C000F7E70020F5E710B504462C211EF0F5FEB8
:1041D000204610BD30B58BB00446BDF86050089540
:1041E000BDF85C5007959DF8505006959DF84C50D1
:1041F00005959DF8485004959DF8445003959DF809
:10420000405002959DF83C500195BDF838500095FE
:1042100012F006F9064B20462360159BE361169BBE
:104220002362199B63621A9BA3620BB030BD00BF6F
:10423000146B02087047704770477047704730B57D
:1042400085B00368044601816D460146D3F8843089
:104250003C342846984795E8070084E8070005B0F5
:1042600030BD30B585B00368044641816D460146D6
:10427000D3F884303C342846984795E8070084E812
:10428000070005B030BD0022028042808280C280DB
:10429000704780F836107047036870B504461B6B92
:1042A000154698472368204629465B6EBDE8704056
:1042B000184700207047806C704770477047704700
:1042C00010B504464C211EF078FE204610BD10B5F6
:1042D00004464FF43A711EF070FE204610BD08B53A
:1042E000FFF7CDFA08BD0000036870B55E6B0446A9
:1042F000114B8DB21B682BB9104B6C21104A114821
:104300001FF0D2F91049828D0988914203D80F4BD2
:104310006D210B4AF3E713F812200D4B1B6853F87D
:10432000220003681B6B9847291A3346204609B2BE
:10433000BDE87040184700BF245602247F6202087F
:10434000C1620208FC620208285602245163020876
:104350002C56022400224FF0FF318260C0E9002178
:104360007047036870B504461B6B15469847236871
:10437000204629465B6BBDE87040184770B504467F
:104380001D46BDF91060FFF7ECFF23682946204663
:104390009B6B9847236831462046DB6BBDE8704035
:1043A000184700000022C0E90122C0E90322C0E949
:1043B0000522C0E907224FF480728284014A02601C
:1043C000704700BF7C6B02082DE9F04F044689B0AE
:1043D000002512F01FFAA0465E4B26222946E5630F
:1043E00004F16C0748F8403B40461FF0F9FB40469B
:1043F000FFF7D8FFFF26584B4FF6FF7926222946B4
:104400002364384684F866604FF0FF3BA566ADF83C
:1044100018901FF0E5FB3846DFF868A1FFF7C2FFF0
:104420004E4B84F8946004F19806E3663846BDF874
:10443000183006A9A4F892300DF0F9FD262229467D
:1044400030461FF0CDFB3046FFF7ACFF4FF47F0343
:104450002A46A4F8C490C4F8CC302946404B4046C4
:10446000C4F8C0A004F10409C4F898304FF4F07304
:10447000C4F8C850A4F8D050C4F8D450C4F8E050E0
:10448000C4E936B500934FF44873FFF777FF4FF058
:104490007F4341464846A3660AF0D8FD2A4638467F
:1044A0002946FFF75EFF384606A9ADF818500DF013
:1044B000BEFD3946484602AF0AF0C8FD40F2371348
:1044C00067223C21304600934FF42A73FFF756FFD2
:1044D000D4F8983038463146D3F88430C4F8C8B0A0
:1044E000A4F8CC50984704F1D40397E8070083E878
:1044F00007001C4B04F1E4071B682BB91A4B602121
:104500001A4A1B481FF0D0F81A4B1B881BB91A4BCC
:104510006121164AF5E7194B2946186800F09CF905
:10452000174A034640F20111384613F00DFE0123ED
:1045300006A93046C4F8E070ADF81C30CDF818A0DC
:104540000DF0AEFC484631460AF080FD204609B029
:10455000BDE8F08F746C020874730208DC73020803
:10456000E46B0208245602247F6202088F6302086B
:10457000FC620208285602245163020830560224C5
:10458000DA630208746A02087047000030B5164DFD
:104590008FB02C68BFF35B8F14F0010420D1284644
:1045A0001EF00DFDE0B13F23012210490993104B8D
:1045B00010480893104B0A940594CDE90643042350
:1045C000CDE903320A23CDE90B440093CDE9014440
:1045D000FFF700FE09481FF085F828461EF0FBFC97
:1045E00004480FB030BD00BF10B50024109A020877
:1045F000649F020814B50024709F020889450008D2
:104600007047000030B5164D8FB02C68BFF35B8F3C
:1046100014F0010420D128461EF0D1FCE0B13F2364
:10462000012210490993104B10480893104B0A942B
:104630000594CDE906430423CDE903322823CDE9CF
:104640000B440093CDE90144FFF7C4FD09481FF076
:1046500049F828461EF0BFFC04480FB030BD00BF2B
:1046600040B50024209A0208689F020844B500243F
:10467000749F0208014600087047000030B5174DCE
:104680008FB02C68BFF35B8F14F0010422D1284651
:104690001EF095FCF0B13F235F2211490993114BA5
:1046A00011480893114B0A94079301230194049332
:1046B000CDE905330423CDE902431423CDE90B44AE
:1046C00000931823FFF786FD09481FF00BF82846D2
:1046D0001EF081FC04480FB030BD00BF70B500244F
:1046E000309A02086C9F020874B50024789F020873
:1046F0007946000800207047002070470EB403B5CB
:1047000003AB002153F8042B019311F007F902B019
:104710005DF804EB03B070470CB407B504AB53F875
:10472000042B019311F0FAF803B05DF804EB02B02A
:1047300070470000436C10B5044673B3038F2BB968
:10474000184BC521184A19481EF0AEFFC38E00EB66
:1047500043035B8C0BB312F04FFF238F012B03D865
:10476000134BCB21134AEEE7E28E40F63F10531C69
:104770009BB2092B194688BFA3F10A0104EB410142
:10478000498C814209D10A2B04EB420228BF002345
:10479000508C04EB4303588451842046BDE81040FC
:1047A00012F02CBEDD630208E66302089164020881
:1047B000E9640208F764020812F0E9BD10B586B09A
:1047C00002AC84E806001A460AAB21460593019321
:1047D000099B0093089B0FF0B1FB06B010BD0000D1
:1047E00038B518BB124B13481C681349B4B1226882
:1047F00022440260626822440A60A26814440F4B9B
:1048000000221A8000F038F8054600F033F80C4B0F
:104810001C600C4B1D600C4B188007E00B4B0360B9
:104820000B4B0B600B4B1C68002CE8D138BD00BF54
:10483000ACB50024A4B50024A0B50024A8B500247C
:10484000245602242C56022428560224089411903F
:104850000094119020941190044B1B6853F8210090
:10486000034B1B6803EB4000704700BFA0B500245A
:10487000A4B500240220704700487047B0B500245A
:1048800010B5054CFFF7FAFE2060FFF7BBFE606035
:10489000FFF77CFEA06010BDB0B5002410B5002469
:1048A00004600C6014601C6010BD704710B50446B5
:1048B0004FF4AE711EF081FB204610BD10B50446CA
:1048C000D0F8580100F014F82046BDE8104010F070
:1048D00019B8000010B50446FFF702FC014B204652
:1048E000236010BDA86C020800220260704700001F
:1048F00070B50F4E0446306808F09EFBB0B10D4D08
:10490000002330681A46294608F066FB70B9231D5B
:104910002968184651F8042B1FF07CF903462068DB
:1049200019460268BDE870409268104770BD00BF2C
:104930008C990024BCB50024704704387047704738
:10494000C0680368DB6A1847A0F10400FFF7F8BFEE
:1049500010B5044610211EF030FB204610BDA0F11A
:104960000400F5E70022C1608260024A02601C3246
:1049700042607047FC6C020870470000034B10B5A2
:1049800004460360FFF79AFC204610BD2C6D020818
:1049900010B50446FFF7F2FF4FF43A7120461EF0BF
:1049A0000CFB204610BD000010B50446FFF70CFDBF
:1049B000014B2046236010BD2C6D0208FFF77FBC21
:1049C00001234FF0FF3210B580F8D13000230446A8
:1049D000C0F8DC30C0E9353240F20112E43013F0A7
:1049E00054F804F19800BDE8104011F0C2B801235A
:1049F0004FF4487200200B8002238B704FF4F07349
:104A0000C1E90123704790F82430012B04BF002333
:104A100080F82430002070470020704710B40469EB
:104A20000089A4465DF8044B604710B4C46800894F
:104A3000A4465DF8044B604770B500F118050E46BA
:104A40000978284600F012F904463179284600F02A
:104A500019F90444317A284600F020F90444317BE6
:104A6000284600F027F90444317C284600F02EF94E
:104A70000444317D284600F035F9C44214BF4FF09C
:104A8000FF30002070BD13B50C4618300DF1070142
:104A900000F040F99DF80730236002B010BD37B533
:104AA00000F118050C4601A9284600F0D2F808BB11
:104AB0009DF80430022B98BF184604232060032180
:104AC00028460DEB030200F0B1F8B0B99DF80430B0
:104AD0009DF805201B0203F4706313439DF8072023
:104AE00063609DF806301B0203F470631343A360F8
:104AF00003B030BD4FF0FF30DFE74FF0FF30F7E796
:104B0000183000F0A1B80121183000F0F7B80021EA
:104B1000183000F0F3B810B590F8243004466BB9A3
:104B2000036898472046FFF7F2FF00384FF0010373
:104B300018BF012084F82430404210BD0020FCE75B
:104B40000020704730B500F1180585B00C462846A6
:104B500001A900F07EF8002845D19DF80430022B11
:104B600098BF184620600C2301AA0321284600F0B4
:104B70005DF800283AD19DF804209DF80510130235
:104B8000920903F47063E2610B439DF807109DF8EE
:104B90000A2063609DF806301B0203F470630B4328
:104BA0009DF80B10E3609DF8083063619DF80930B3
:104BB0001B0963621302920903F4706322620B43C0
:104BC0009DF80D10A3609DF80C301B0203F4706378
:104BD0000B4323619DF80E30A3619DF80F301B0934
:104BE000A36205B030BD4FF0FF30BBE74FF0FF30A0
:104BF000F7E7000090B14A680B6842600A890360D9
:104C00000281CA68C2600A6902614A69006242613F
:104C1000044AC261044A826103B118474FF0FF3071
:104C2000704700BF1D4A00082B4A000810B4D0E9A5
:104C30000140A4465DF8044B604710B404688068E6
:104C4000A4465DF8044B604701230A461946FFF766
:104C5000EDBF10B50A460C4601230221FFF7E6FF1F
:104C600018B9237803F00F03237010BD07B5012393
:104C70008DF807100DF107029121FFF7DEFF03B059
:104C80005DF804FB07B501238DF807100DF107024D
:104C90009221FFF7D2FF03B05DF804FB07B50123B3
:104CA0008DF807100DF107029321FFF7C6FF03B03F
:104CB0005DF804FB07B501238DF807100DF107021D
:104CC0009421FFF7BAFF03B05DF804FB07B5012399
:104CD0008DF807100DF107029521FFF7AEFF03B025
:104CE0005DF804FB07B501238DF807100DF10702ED
:104CF0009621FFF7A2FF03B05DF804FB07B501237F
:104D00008DF807100DF10702A421FFF796FF03B0FD
:104D10005DF804FB0A460123A821FFF787BF0000C6
:104D200008B50122074BC3E900219A600022194609
:104D3000DA604FF6FF7206F0B9FC003818BF0120A8
:104D4000404208BDC0B5002408B50222084BC3E9A3
:104D5000002101210022C3E902124FF6FF72194619
:104D600006F0A4FC003818BF0120404208BD00BF77
:104D7000C0B500240A46D1E9033110B50B4351698F
:104D800004240B4391690B43D16912680B43074913
:104D90004A6001220C60C1E902234FF6FF7206F05F
:104DA00085FC003818BF0120404210BDC0B500246A
:104DB00008B5084BC3E9002108210022C3E902120B
:104DC0004FF6FF72194606F071FC003818BF01203B
:104DD000404208BDC0B5002408B506F086FC003886
:104DE00018BF0120404208BD70B50C460968054651
:104DF000FFF796FF10B14FF0FF3070BD01F07EFC61
:104E0000064601F07BFC8642FBD021682846FFF76E
:104E10009BFF0028EFD12846D4E90012FFF7C8FF16
:104E20000028E8D121462846FFF7A4FF0028E2D158
:104E3000A1682846FFF7D0FF003818BF0120404284
:104E4000DBE74FF000624FF400534FF48071C0E98C
:104E500000234FF48043C0E902314FF40023036183
:104E60000020704700B54FF4407395B04FF040728A
:104E70000C9305230F920222069300230B9206A99E
:104E800013930093049303926A46CDE90D33CDE961
:104E90001133102302934FF48003059340F2011362
:104EA000019341F2883304F0AFFE002814BF6FF085
:104EB0000400002015B05DF804FB032941F288329C
:104EC00030B518BF4FF4807395B008BF4FF44073EE
:104ED0000C4606A905460C93062306930023CDE94C
:104EE0000D330F930B931393CDE9113304F08CFD25
:104EF00020BB40F202230222032C4FF480010490D5
:104F00002846CDE900334FF01003CDE902324FF0CF
:104F100005036A46CDE9051314BF4FF080734FF0C7
:104F2000407306A90F9341F2883304F06DFE002808
:104F300014BF6FF00400002015B030BD6FF0010009
:104F4000FAE7032930B518BF4FF480738FB008BF5C
:104F50004FF4407304460D460693B7230093002395
:104F6000CDE90733099305930D93CDE90B33FFF793
:104F7000A4FF18B16FF001000FB030BD41F28832CC
:104F80006946204604F040FD0028F3D1294620461A
:104F9000FFF768FF0028EFD0ECE700B54FF480730F
:104FA0008FB041F28832069335236946009300237F
:104FB000CDE90733099305930D93CDE90B3304F045
:104FC00023FD002814BF6FF0010000200FB05DF832
:104FD00004FB00B54FF480738FB041F28832069322
:104FE000F523694600930023CDE907330993059320
:104FF0000D93CDE90B3304F007FD002814BF6FF0CB
:10500000010000200FB05DF804FB00B591B003294A
:105010000ED8DFE801F00229343F4FF48073089383
:105020000E2302934FF4806309934FF080730B9328
:1050300008224FF440534FF0004C02A907924FF062
:10504000804205930023CDE90DC26A460A930F936F
:10505000CDE9003304F029FE002814BF6FF00500ED
:10506000002011B05DF804FB4FF4807308933D23DA
:1050700002934FF4806309934FF00073D7E74FF426
:1050800080730893EE2302934FF4406309934FF02B
:105090004073CCE74FF440730893ED23F3E700B57A
:1050A00091B003290ED8DFE801F00225303B4FF420
:1050B000807308930C2302934FF4806309934FF09D
:1050C00080730B9308236A4602A907934FF4405359
:1050D000059300230A930F93CDE90D33CDE90033F7
:1050E00004F0E3FD002814BF6FF00500002011B0AC
:1050F0005DF804FB4FF480730893BC2302934FF4D4
:10510000006309934FF00073DBE74FF4807308935B
:10511000EC2302934FF4406309934FF04073D0E7C0
:105120004FF440730893EB23F3E7032941F28832ED
:1051300000B518BF4FF480738FB008BF4FF44073B1
:1051400069460693662300930023CDE9073309934C
:1051500005930D93CDE90B3304F056FC002814BFE2
:105160006FF0010000200FB05DF804FB032941F24D
:10517000883200B518BF4FF480738FB008BF4FF46A
:10518000407369460693992300930023CDE90733C2
:10519000099305930D93CDE90B3304F035FC0028FA
:1051A00014BF6FF0010000200FB05DF804FB10B4D5
:1051B00084680088A4465DF8044B604710B44468D6
:1051C0000088A4465DF8044B604770B5C368044688
:1051D0000D4698470646E3689847831BAB42FAD3CF
:1051E00070BD00002DE9F341002300F110050746D2
:1051F0000E4690461946DE4A284600F099FB0323E6
:105200000446DC4AFF21284600F092FB00230444B8
:10521000D94A1946284600F08BFB02230444D74A9A
:10522000FF21284600F084FB00230444D24A19469B
:10523000284600F07DFB04440023D14AC4212846BF
:1052400000F076FB0A2104443846FFF7BEFF002336
:10525000CC4A2846194600F06BFB04440023CA4A96
:10526000C421284600F064FB0A2104443846FFF7B5
:10527000ACFF0023C54A2846194600F059FB00231D
:105280000444C34AC521284600F052FB00230444CD
:10529000C04A1946284600F04BFB00230444BE4A8E
:1052A000C521284600F044FB00230444BB4A1946AC
:1052B000284600F03DFB00230444B94AC02128469B
:1052C00000F036FB00230444A94A1946284600F0A2
:1052D0002FFB00230444B34AD921284600F028FBC1
:1052E00000230444B04A1946284600F021FB00235D
:1052F0000444AE4AC121284600F01AFB00230444AE
:10530000AB4A1946284600F013FB00230444A94A7F
:10531000C521284600F00CFB00230444A64A194688
:10532000284600F005FB002304449B4AC52128467B
:1053300000F0FEFA002304448D4A1946284600F086
:10534000F7FA022304449D4AD821284600F0F0FAD7
:10535000002304449A4A1946284600F0E9FA00233B
:105360000444984AC521284600F0E2FA0023044488
:10537000954A1946284600F0DBFA00230444934A74
:10538000C021284600F0D4FA00230444904A19466C
:10539000284600F0CDFA002304448E4AC521284651
:1053A00000F0C6FA002304448B4A1946284600F050
:1053B000BFFA00230444894AC421284600F0B8FA01
:1053C00000230444784A1946284600F0B1FA002325
:1053D0000444834AC121284600F0AAFA0023044469
:1053E000804A1946284600F0A3FA022304447E4A64
:1053F000B321284600F09CFA002304445E4A194673
:10540000284600F095FA06230444784ACE2128461F
:1054100000F08EFA00230444754A1946284600F02D
:1054200087FA0E230444734ACE21284600F080FAFE
:1054300000230444704A1946284600F079FA0E23E6
:1054400004446E4ACE21284600F072FA0023044438
:105450006B4A1946284600F06BFA0A230444694A4D
:10546000CF21284600F064FA00230444664A194616
:10547000284600F05DFA00230444644ACF21284600
:1054800000F056FA002304443B4A1946284600F02F
:105490004FFA0A2304445E4ACB21284600F048FA1A
:1054A000002304445B4A1946284600F041FA0F23C2
:1054B0000444594ACB21284600F03AFA0023044418
:1054C0004B4A1946284600F033FA0F230444534A46
:1054D000CB21284600F02CFA00230444464A194602
:1054E000284600F025FA0A2304444D4ACB212846D9
:1054F00000F01EFA00230444414A1946284600F0F1
:1055000017FA0F230444474ACB21284600F010FA2B
:10551000002304443C4A1946284600F009FA0F23A8
:105520000444414ACB21284600F002FA00230444F7
:105530003E4A1946284600F0FBF90A2304443C4A37
:10554000CB21284600F0F4F900230444394A1946D7
:10555000284600F0EDF90A230444374ACB212846B7
:1055600000F0E6F900230444034A1946284665E0A2
:10557000696E0208656E02086A6E0208636E0208B0
:105580006B6E02086C6E02086D6E02086E6E020889
:105590006F6E0208706E0208716E0208726E020869
:1055A000736E0208746E0208776E0208786E020845
:1055B000796E02087A6E02087B6E0208616E02083C
:1055C0007C6E02087D6E02087E6E02087F6E020805
:1055D000806E0208816E0208756E0208826E0208F3
:1055E000836E0208846E02085F6E0208596E02081C
:1055F000856E02084B6E0208866E02083D6E020838
:10560000876E0208336E0208886E0208956E0208E3
:10561000296E0208896E02081A6E02080B6E0208D3
:10562000016E0208F26D0208E36D02088A6E02083C
:10563000D96D02088B6E0208CF6D020800F078F970
:105640000A2304448E4ACC21284600F071F9002335
:1056500004448C4A1946284600F06AF90F23044492
:10566000894ACC21284600F063F900230444874A84
:105670001946284600F05CF90F230444844ACC21E3
:10568000284600F055F900230444824A194628466A
:1056900000F04EF90A2304447F4ACC21284600F04A
:1056A00047F9002304447D4A1946284600F040F992
:1056B0000F2304447A4ACC21284600F039F900230C
:1056C0000444784A1946284600F032F90F2304446E
:1056D000754ACC21284600F02BF900230444734A74
:1056E0001946284600F024F900230444704AC521D5
:1056F000284600F01DF9002304446E4A1946284646
:1057000000F016F9002304446B4AF521284600F006
:105710000FF900230444694A1946284600F008F9A5
:1057200000230444664AC621284600F001F90023FC
:105730000444644A1946284600F0FAF80323044456
:10574000614AFF21284600F0F3F8002304445D4A33
:105750001946284600F0ECF800230444594A19463B
:10576000284600F0E5F810230444584AE121284671
:1057700000F0DEF800230444524A1946284600F09F
:10578000D7F804441023524AE221284600F0D0F80A
:10579000044400234F4A1121284600F0C9F878211B
:1057A00004443846FFF711FD4B4F002E61D0022E06
:1057B00007D10023494A3A21284600F0B9F80444A9
:1057C0007E60B8F1010F57D160230DF10702362139
:1057D00028468DF80730002300F0AAF82618042385
:1057E0003F4A2A21284600F0A3F8064404233D4AF4
:1057F0002B21284600F09CF83418C7F800800026BA
:105800000023394A5121284600F092F804443346D7
:10581000364A53212846BE6000F08AF804443346D5
:10582000334A5521284600F083F804443346314A70
:105830005E21284600F07CF8044433462E4A292194
:10584000284600F075F80444334631461D4A284680
:1058500000F06EF804443346284A2C21284600F014
:1058600067F8C44214BF4FF0FF30304602B0BDE8C5
:10587000F0813346224A9EE700233B60BFE700BF2A
:10588000C56D0208896E0208B66D0208856E0208B1
:10589000A76D0208866E02089D6D0208876E0208D9
:1058A0008E6D0208886E02087F6D0208756E020810
:1058B000966E0208976E0208986E0208996E0208AA
:1058C0009A6E0208696E02087C6D02086C6D02080F
:1058D0005C6D02088C6E0208D0B500248D6E020843
:1058E0009F6E02089B6E02088F6E0208906E02087F
:1058F000916E0208926E0208936E0208946E02087E
:105900008E6E020860B14B6843608B688360CB6821
:105910008061C360044B4361044B03610020704706
:105920004FF0FF30704700BFAF510008BD51000875
:1059300010B404688068A4465DF8044B604700001A
:10594000104A08B51368013B13600BB1002008BD75
:105950004FF480510C4801F0E3FF0B484FF4005125
:1059600001F0DEFF094A0A48D2F8F43023F0800340
:10597000C2F8F43002F024FA0028E7D06FF00700F4
:10598000E5E700BF34C00024000C02580044025870
:10599000DCB500240023012210B5416004460362F7
:1059A000C0E90232C0E90433C0E9063302F0B2F9BB
:1059B000014608B1012010BD204602F0D8FB014687
:1059C0000028F7D1204602F0F8FB003818BF01206C
:1059D000F1E70000A24BA3482DE9F04F93B003601C
:1059E000A14B1C681CB1002013B0BDE8F08F012250
:1059F0001A6002F0B7FB0028F5D19C4D4FF0120859
:105A000002270426D5F8E0300DA9994843F0080391
:105A1000C5F8E030D5F8E03003F008030A930A9B9C
:105A2000D5F8E03043F00803C5F8E030D5F8E030B1
:105A30000F9403F008030B930B9B4FF48053CDE9B5
:105A40001076CDE90D3801F083FE4FF400530DA917
:105A500087481196CDE90D38CDE90F4701F078FE62
:105A6000D5F8F43043F08003C5F8F430D5F8F430BD
:105A700003F080030C930C9BD5F89C3043F080031B
:105A8000C5F89C30D5F89C3023F08003C5F89C30D5
:105A900004F03EFE00286DD0764B2246A2464FF021
:105AA000100903EB5003DFF8D4B1B3FBF0F000EBC7
:105AB000400500FA07F60146C5F13203C6F5C37684
:105AC00023EAE37326EAE67600936B4B1B6888466D
:105AD0004FF0000CB8F5AF7FCDF804C00CF1010C0D
